{
  "abi": [
    {
      "type": "function",
      "name": "JsonABI",
      "inputs": [],
      "outputs": [],
      "stateMutability": "nonpayable"
    },
    {
      "type": "function",
      "name": "class",
      "inputs": [
        {
          "name": "status",
          "type": "uint256",
          "internalType": "uint256"
        },
        {
          "name": "msg",
          "type": "string",
          "internalType": "string"
        }
      ],
      "outputs": [],
      "stateMutability": "nonpayable"
    },
    {
      "type": "function",
      "name": "complexArgs",
      "inputs": [
        {
          "name": "status",
          "type": "uint256",
          "internalType": "uint256"
        },
        {
          "name": "details",
          "type": "tuple[3][]",
          "internalType": "struct Functions.Details[3][]",
          "components": [
            {
              "name": "success",
              "type": "bool",
              "internalType": "bool"
            },
            {
              "name": "data",
              "type": "bytes",
              "internalType": "bytes"
            }
          ]
        }
      ],
      "outputs": [
        {
          "name": "",
          "type": "uint256",
          "internalType": "uint256"
        }
      ],
      "stateMutability": "nonpayable"
    },
    {
      "type": "function",
      "name": "complexArgs2",
      "inputs": [
        {
          "name": "status",
          "type": "uint256",
          "internalType": "uint256"
        },
        {
          "name": "differentName",
          "type": "tuple[3][]",
          "internalType": "struct Functions.Details[3][]",
          "components": [
            {
              "name": "success",
              "type": "bool",
              "internalType": "bool"
            },
            {
              "name": "data",
              "type": "bytes",
              "internalType": "bytes"
            }
          ]
        }
      ],
      "outputs": [
        {
          "name": "",
          "type": "uint256",
          "internalType": "uint256"
        }
      ],
      "stateMutability": "nonpayable"
    },
    {
      "type": "function",
      "name": "getE2ModeCategoryData",
      "inputs": [],
      "outputs": [],
      "stateMutability": "nonpayable"
    },
    {
      "type": "function",
      "name": "get_dy",
      "inputs": [
        {
          "name": "i",
          "type": "uint256",
          "internalType": "uint256"
        },
        {
          "name": "j",
          "type": "uint256",
          "internalType": "uint256"
        },
        {
          "name": "dx",
          "type": "uint256",
          "internalType": "uint256"
        }
      ],
      "outputs": [
        {
          "name": "",
          "type": "uint256",
          "internalType": "uint256"
        }
      ],
      "stateMutability": "view"
    },
    {
      "type": "function",
      "name": "get_dy",
      "inputs": [
        {
          "name": "i",
          "type": "int128",
          "internalType": "int128"
        },
        {
          "name": "j",
          "type": "int128",
          "internalType": "int128"
        },
        {
          "name": "dx",
          "type": "uint256",
          "internalType": "uint256"
        }
      ],
      "outputs": [
        {
          "name": "",
          "type": "uint256",
          "internalType": "uint256"
        }
      ],
      "stateMutability": "view"
    },
    {
      "type": "function",
      "name": "noArgs",
      "inputs": [],
      "outputs": [],
      "stateMutability": "nonpayable"
    },
    {
      "type": "function",
      "name": "noArgsMultiReturns",
      "inputs": [],
      "outputs": [
        {
          "name": "status",
          "type": "uint256",
          "internalType": "uint256"
        },
        {
          "name": "done",
          "type": "bool",
          "internalType": "bool"
        }
      ],
      "stateMutability": "nonpayable"
    },
    {
      "type": "function",
      "name": "noArgsReturns",
      "inputs": [],
      "outputs": [
        {
          "name": "",
          "type": "uint256",
          "internalType": "uint256"
        }
      ],
      "stateMutability": "nonpayable"
    },
    {
      "type": "function",
      "name": "overloaded",
      "inputs": [
        {
          "name": "status",
          "type": "uint256",
          "internalType": "uint256"
        },
        {
          "name": "msg",
          "type": "string",
          "internalType": "string"
        },
        {
          "name": "done",
          "type": "bool",
          "internalType": "bool"
        }
      ],
      "outputs": [],
      "stateMutability": "nonpayable"
    },
    {
      "type": "function",
      "name": "overloaded",
      "inputs": [
        {
          "name": "status",
          "type": "uint256",
          "internalType": "uint256"
        },
        {
          "name": "msg",
          "type": "string",
          "internalType": "string"
        }
      ],
      "outputs": [],
      "stateMutability": "nonpayable"
    },
    {
      "type": "function",
      "name": "package",
      "inputs": [
        {
          "name": "status",
          "type": "uint256",
          "internalType": "uint256"
        },
        {
          "name": "msg",
          "type": "string",
          "internalType": "string"
        }
      ],
      "outputs": [],
      "stateMutability": "nonpayable"
    },
    {
      "type": "function",
      "name": "payableArgs",
      "inputs": [
        {
          "name": "status",
          "type": "uint256",
          "internalType": "uint256"
        },
        {
          "name": "msg",
          "type": "string",
          "internalType": "string"
        }
      ],
      "outputs": [],
      "stateMutability": "payable"
    },
    {
      "type": "function",
      "name": "repayWithATokens",
      "inputs": [],
      "outputs": [],
      "stateMutability": "nonpayable"
    },
    {
      "type": "function",
      "name": "simpleArgs",
      "inputs": [
        {
          "name": "status",
          "type": "uint256",
          "internalType": "uint256"
        },
        {
          "name": "msg",
          "type": "string",
          "internalType": "string"
        }
      ],
      "outputs": [],
      "stateMutability": "nonpayable"
    },
    {
      "type": "function",
      "name": "viewArgs",
      "inputs": [
        {
          "name": "status",
          "type": "uint256",
          "internalType": "uint256"
        },
        {
          "name": "msg",
          "type": "string",
          "internalType": "string"
        }
      ],
      "outputs": [],
      "stateMutability": "view"
    }
  ],
  "bytecode": {
    "object": "0x608060405234801561001057600080fd5b50610618806100206000396000f3fe6080604052600436106100fe5760003560e01c80638e49596211610095578063b0333c4e11610064578063b0333c4e14610125578063cab5387f14610125578063d5dcdb3814610125578063d9d2f075146101a3578063e22d71a5146101f057600080fd5b80638e495962146101d15780639150d7841461012557806393707817146101a3578063af526ece146101d157600080fd5b80635e0d443f116100d15780635e0d443f1461018857806383c962bb146101a357806387faaddf146101a35780638daf2102146101af57600080fd5b806328134bdc146101035780632b83f6a31461012557806331d6fa2714610144578063556d6e9f14610167575b600080fd5b34801561010f57600080fd5b5061012361011e366004610325565b505050565b005b34801561013157600080fd5b5061012361014036600461037c565b5050565b34801561015057600080fd5b50602a5b6040519081526020015b60405180910390f35b34801561017357600080fd5b506101546101823660046103c3565b92915050565b34801561019457600080fd5b50610154610182366004610401565b34801561012357600080fd5b3480156101bb57600080fd5b5060408051602a8152600160208201520161015e565b3480156101dd57600080fd5b506101546101ec36600461043d565b5090565b61012361014036600461037c565b634e487b7160e01b600052604160045260246000fd5b6040516060810167ffffffffffffffff81118282101715610237576102376101fe565b60405290565b6040805190810167ffffffffffffffff81118282101715610237576102376101fe565b604051601f8201601f1916810167ffffffffffffffff81118282101715610289576102896101fe565b604052919050565b600067ffffffffffffffff8311156102ab576102ab6101fe565b6102be601f8401601f1916602001610260565b90508281528383830111156102d257600080fd5b828260208301376000602084830101529392505050565b600082601f8301126102fa57600080fd5b61030983833560208501610291565b9392505050565b8035801515811461032057600080fd5b919050565b60008060006060848603121561033a57600080fd5b83359250602084013567ffffffffffffffff81111561035857600080fd5b610364868287016102e9565b92505061037360408501610310565b90509250925092565b6000806040838503121561038f57600080fd5b82359150602083013567ffffffffffffffff8111156103ad57600080fd5b6103b9858286016102e9565b9150509250929050565b6000806000606084860312156103d857600080fd5b505081359360208301359350604090920135919050565b8035600f81900b811461032057600080fd5b60008060006060848603121561041657600080fd5b61041f846103ef565b925061042d602085016103ef565b9150604084013590509250925092565b6000806040838503121561045057600080fd5b8235915067ffffffffffffffff806020850135111561046e57600080fd5b6020840135840185601f82011261048457600080fd5b8181351115610495576104956101fe565b6104a56020823560051b01610260565b81358082526020808301929160051b8401018810156104c357600080fd5b602083015b6020843560051b8501018110156105d35784813511156104e757600080fd5b88603f8235860101126104f957600080fd5b610501610214565b808a60808435880101111561051557600080fd5b602083358701015b608084358801018110156105c357878135111561053957600080fd5b833587018135016040818e03601f1901121561055457600080fd5b61055c61023d565b61056860208301610310565b8152896040830135111561057b57600080fd5b8d603f60408401358401011261059057600080fd5b6105a88e604084810135850160208101359101610291565b6020820152808552505060208301925060208101905061051d565b50845250602092830192016104c8565b5080945050505050925092905056fea26469706673582212202b21cd45cc5d9592c35c91026b852171117db0c6e2517db792871c1c71befb9464736f6c63430008130033",
    "linkReferences": {}
  },
  "methodIdentifiers": {
    "JsonABI()": "87faaddf",
    "class(uint256,string)": "cab5387f",
    "complexArgs(uint256,(bool,bytes)[3][])": "8e495962",
    "complexArgs2(uint256,(bool,bytes)[3][])": "af526ece",
    "getE2ModeCategoryData()": "d9d2f075",
    "get_dy(int128,int128,uint256)": "5e0d443f",
    "get_dy(uint256,uint256,uint256)": "556d6e9f",
    "noArgs()": "83c962bb",
    "noArgsMultiReturns()": "8daf2102",
    "noArgsReturns()": "31d6fa27",
    "overloaded(uint256,string)": "d5dcdb38",
    "overloaded(uint256,string,bool)": "28134bdc",
    "package(uint256,string)": "b0333c4e",
    "payableArgs(uint256,string)": "e22d71a5",
    "repayWithATokens()": "93707817",
    "simpleArgs(uint256,string)": "9150d784",
    "viewArgs(uint256,string)": "2b83f6a3"
  },
  "id": 3
}