{
  "abi": [
    {
      "inputs": [
        {
          "components": [
            {
              "internalType": "bool",
              "name": "success",
              "type": "bool"
            },
            {
              "internalType": "bytes",
              "name": "data",
              "type": "bytes"
            }
          ],
          "internalType": "struct Structs.Simple",
          "name": "simple",
          "type": "tuple"
        },
        {
          "components": [
            {
              "internalType": "uint256[][][]",
              "name": "status",
              "type": "uint256[][][]"
            },
            {
              "internalType": "string[3]",
              "name": "msg",
              "type": "string[3]"
            }
          ],
          "internalType": "struct Structs.Complex",
          "name": "complex",
          "type": "tuple"
        },
        {
          "components": [
            {
              "internalType": "string",
              "name": "desc",
              "type": "string"
            },
            {
              "components": [
                {
                  "internalType": "bool",
                  "name": "success",
                  "type": "bool"
                },
                {
                  "internalType": "bytes",
                  "name": "data",
                  "type": "bytes"
                }
              ],
              "internalType": "struct Structs.Simple",
              "name": "simple",
              "type": "tuple"
            },
            {
              "components": [
                {
                  "internalType": "uint256[][][]",
                  "name": "status",
                  "type": "uint256[][][]"
                },
                {
                  "internalType": "string[3]",
                  "name": "msg",
                  "type": "string[3]"
                }
              ],
              "internalType": "struct Structs.Complex",
              "name": "complex",
              "type": "tuple"
            }
          ],
          "internalType": "struct Structs.Nested",
          "name": "nested",
          "type": "tuple"
        },
        {
          "components": [
            {
              "internalType": "string",
              "name": "desc",
              "type": "string"
            }
          ],
          "internalType": "struct Structs.class",
          "name": "cls",
          "type": "tuple"
        },
        {
          "components": [
            {
              "internalType": "string",
              "name": "desc",
              "type": "string"
            }
          ],
          "internalType": "struct Structs.package",
          "name": "pkg",
          "type": "tuple"
        }
      ],
      "name": "withStructs",
      "outputs": [],
      "stateMutability": "nonpayable",
      "type": "function"
    }
  ],
  "bytecode": {
    "object": "0x608060405234801561001057600080fd5b50610627806100206000396000f3fe608060405234801561001057600080fd5b506004361061002b5760003560e01c8063dcb1618914610030575b600080fd5b61004561003e36600461051f565b5050505050565b005b634e487b7160e01b600052604160045260246000fd5b6040805190810167ffffffffffffffff8111828210171561008057610080610047565b60405290565b6040516060810167ffffffffffffffff8111828210171561008057610080610047565b604051601f8201601f1916810167ffffffffffffffff811182821017156100d2576100d2610047565b604052919050565b600067ffffffffffffffff8311156100f4576100f4610047565b610107601f8401601f19166020016100a9565b905082815283838301111561011b57600080fd5b828260208301376000602084830101529392505050565b60006040828403121561014457600080fd5b61014c61005d565b90508135801515811461015e57600080fd5b8152602082013567ffffffffffffffff81111561017a57600080fd5b8201601f8101841361018b57600080fd5b61019a848235602084016100da565b60208301525092915050565b600067ffffffffffffffff8211156101c0576101c0610047565b5060051b60200190565b600082601f8301126101db57600080fd5b6101ea838335602085016100da565b9392505050565b600082601f83011261020257600080fd5b61020a610086565b80606084018581111561021c57600080fd5b845b8181101561025957803567ffffffffffffffff81111561023e5760008081fd5b61024a888289016101ca565b8552506020938401930161021e565b509095945050505050565b60006040828403121561027657600080fd5b61027e61005d565b905067ffffffffffffffff808335111561029757600080fd5b8235830184601f8201126102aa57600080fd5b6102bc6102b782356101a6565b6100a9565b81358082526020808301929160051b8401018710156102da57600080fd5b602083015b6020843560051b8501018110156103f45784813511156102fe57600080fd5b8035840188603f82011261031157600080fd5b6103216102b760208301356101a6565b602082810135808352908201919060051b83016040018b101561034357600080fd5b604083015b6040602085013560051b8501018110156103e357888135111561036a57600080fd5b803584018c605f82011261037d57600080fd5b61038d6102b760408301356101a6565b604082013580825260208201919060051b83016060018f8111156103b057600080fd5b6060840193505b808410156103d25783358352602093840193909201916103b7565b508552505060209283019201610348565b5085525050602092830192016102df565b5084525050602083013581101561040a57600080fd5b5061041b83602084013584016101f1565b602082015292915050565b60006060828403121561043857600080fd5b610440610086565b9050813567ffffffffffffffff8082111561045a57600080fd5b610466858386016101ca565b8352602084013591508082111561047c57600080fd5b61048885838601610132565b602084015260408401359150808211156104a157600080fd5b506104ae84828501610264565b60408301525092915050565b6000602082840312156104cc57600080fd5b6040516020810167ffffffffffffffff82821081831117156104f0576104f0610047565b81604052829350843591508082111561050857600080fd5b50610515858286016101ca565b8252505092915050565b600080600080600060a0868803121561053757600080fd5b853567ffffffffffffffff8082111561054f57600080fd5b61055b89838a01610132565b9650602088013591508082111561057157600080fd5b61057d89838a01610264565b9550604088013591508082111561059357600080fd5b61059f89838a01610426565b945060608801359150808211156105b557600080fd5b6105c189838a016104ba565b935060808801359150808211156105d757600080fd5b506105e4888289016104ba565b915050929550929590935056fea26469706673582212204e8f4e3eb7471eafa59d8eef429a6c51939fd0ffc966d127fd8322a9cb91d75564736f6c63430008130033",
    "linkReferences": {}
  },
  "methodIdentifiers": {
    "withStructs((bool,bytes),(uint256[][][],string[3]),(string,(bool,bytes),(uint256[][][],string[3])),(string),(string))": "dcb16189"
  },
  "id": 0
}