{"abi":[{"type":"function","name":"JsonABI","inputs":[],"outputs":[],"stateMutability":"nonpayable"},{"type":"function","name":"class","inputs":[{"name":"status","type":"uint256","internalType":"uint256"},{"name":"msg","type":"string","internalType":"string"}],"outputs":[],"stateMutability":"nonpayable"},{"type":"function","name":"complexArgs","inputs":[{"name":"status","type":"uint256","internalType":"uint256"},{"name":"details","type":"tuple[3][]","internalType":"struct Functions.Details[3][]","components":[{"name":"success","type":"bool","internalType":"bool"},{"name":"data","type":"bytes","internalType":"bytes"}]}],"outputs":[{"name":"","type":"uint256","internalType":"uint256"}],"stateMutability":"nonpayable"},{"type":"function","name":"complexArgs2","inputs":[{"name":"status","type":"uint256","internalType":"uint256"},{"name":"differentName","type":"tuple[3][]","internalType":"struct Functions.Details[3][]","components":[{"name":"success","type":"bool","internalType":"bool"},{"name":"data","type":"bytes","internalType":"bytes"}]}],"outputs":[{"name":"","type":"uint256","internalType":"uint256"}],"stateMutability":"nonpayable"},{"type":"function","name":"getE2ModeCategoryData","inputs":[],"outputs":[],"stateMutability":"nonpayable"},{"type":"function","name":"noArgs","inputs":[],"outputs":[],"stateMutability":"nonpayable"},{"type":"function","name":"noArgsMultiReturns","inputs":[],"outputs":[{"name":"status","type":"uint256","internalType":"uint256"},{"name":"done","type":"bool","internalType":"bool"}],"stateMutability":"nonpayable"},{"type":"function","name":"noArgsReturns","inputs":[],"outputs":[{"name":"","type":"uint256","internalType":"uint256"}],"stateMutability":"nonpayable"},{"type":"function","name":"overloaded","inputs":[{"name":"status","type":"uint256","internalType":"uint256"},{"name":"msg","type":"string","internalType":"string"},{"name":"done","type":"bool","internalType":"bool"}],"outputs":[],"stateMutability":"nonpayable"},{"type":"function","name":"overloaded","inputs":[{"name":"status","type":"uint256","internalType":"uint256"},{"name":"msg","type":"string","internalType":"string"}],"outputs":[],"stateMutability":"nonpayable"},{"type":"function","name":"package","inputs":[{"name":"status","type":"uint256","internalType":"uint256"},{"name":"msg","type":"string","internalType":"string"}],"outputs":[],"stateMutability":"nonpayable"},{"type":"function","name":"payableArgs","inputs":[{"name":"status","type":"uint256","internalType":"uint256"},{"name":"msg","type":"string","internalType":"string"}],"outputs":[],"stateMutability":"payable"},{"type":"function","name":"repayWithATokens","inputs":[],"outputs":[],"stateMutability":"nonpayable"},{"type":"function","name":"simpleArgs","inputs":[{"name":"status","type":"uint256","internalType":"uint256"},{"name":"msg","type":"string","internalType":"string"}],"outputs":[],"stateMutability":"nonpayable"},{"type":"function","name":"viewArgs","inputs":[{"name":"status","type":"uint256","internalType":"uint256"},{"name":"msg","type":"string","internalType":"string"}],"outputs":[],"stateMutability":"view"}],"bytecode":{"object":"0x608060405234801561001057600080fd5b5061054c806100206000396000f3fe6080604052600436106100e85760003560e01c80639150d7841161008a578063cab5387f11610059578063cab5387f1461010f578063d5dcdb381461010f578063d9d2f07514610151578063e22d71a51461019e57600080fd5b80639150d7841461010f5780639370781714610151578063af526ece1461017f578063b0333c4e1461010f57600080fd5b806383c962bb116100c657806383c962bb1461015157806387faaddf146101515780638daf21021461015d5780638e4959621461017f57600080fd5b806328134bdc146100ed5780632b83f6a31461010f57806331d6fa271461012e575b600080fd5b3480156100f957600080fd5b5061010d6101083660046102d3565b505050565b005b34801561011b57600080fd5b5061010d61012a36600461032a565b5050565b34801561013a57600080fd5b50602a5b6040519081526020015b60405180910390f35b34801561010d57600080fd5b34801561016957600080fd5b5060408051602a81526001602082015201610148565b34801561018b57600080fd5b5061013e61019a366004610371565b5090565b61010d61012a36600461032a565b634e487b7160e01b600052604160045260246000fd5b6040516060810167ffffffffffffffff811182821017156101e5576101e56101ac565b60405290565b6040805190810167ffffffffffffffff811182821017156101e5576101e56101ac565b604051601f8201601f1916810167ffffffffffffffff81118282101715610237576102376101ac565b604052919050565b600067ffffffffffffffff831115610259576102596101ac565b61026c601f8401601f191660200161020e565b905082815283838301111561028057600080fd5b828260208301376000602084830101529392505050565b600082601f8301126102a857600080fd5b6102b78383356020850161023f565b9392505050565b803580151581146102ce57600080fd5b919050565b6000806000606084860312156102e857600080fd5b83359250602084013567ffffffffffffffff81111561030657600080fd5b61031286828701610297565b925050610321604085016102be565b90509250925092565b6000806040838503121561033d57600080fd5b82359150602083013567ffffffffffffffff81111561035b57600080fd5b61036785828601610297565b9150509250929050565b6000806040838503121561038457600080fd5b8235915067ffffffffffffffff80602085013511156103a257600080fd5b6020840135840185601f8201126103b857600080fd5b81813511156103c9576103c96101ac565b6103d96020823560051b0161020e565b81358082526020808301929160051b8401018810156103f757600080fd5b602083015b6020843560051b85010181101561050757848135111561041b57600080fd5b88603f82358601011261042d57600080fd5b6104356101c2565b808a60808435880101111561044957600080fd5b602083358701015b608084358801018110156104f757878135111561046d57600080fd5b833587018135016040818e03601f1901121561048857600080fd5b6104906101eb565b61049c602083016102be565b815289604083013511156104af57600080fd5b8d603f6040840135840101126104c457600080fd5b6104dc8e60408481013585016020810135910161023f565b60208201528085525050602083019250602081019050610451565b50845250602092830192016103fc565b5080945050505050925092905056fea2646970667358221220ad5d9cd93b2cadd67a1f47b2d409d1245078d91afe643fc6d474d38f2b9cf35964736f6c63430008130033","linkReferences":{}},"methodIdentifiers":{"JsonABI()":"87faaddf","class(uint256,string)":"cab5387f","complexArgs(uint256,(bool,bytes)[3][])":"8e495962","complexArgs2(uint256,(bool,bytes)[3][])":"af526ece","getE2ModeCategoryData()":"d9d2f075","noArgs()":"83c962bb","noArgsMultiReturns()":"8daf2102","noArgsReturns()":"31d6fa27","overloaded(uint256,string)":"d5dcdb38","overloaded(uint256,string,bool)":"28134bdc","package(uint256,string)":"b0333c4e","payableArgs(uint256,string)":"e22d71a5","repayWithATokens()":"93707817","simpleArgs(uint256,string)":"9150d784","viewArgs(uint256,string)":"2b83f6a3"},"id":0}